{
  "_format": "hh-sol-artifact-1",
  "contractName": "MyEpicNFT",
  "sourceName": "contracts/MyEpicNFT.sol",
  "abi": [
    {
      "inputs": [],
      "stateMutability": "nonpayable",
      "type": "constructor"
    },
    {
      "anonymous": false,
      "inputs": [
        {
          "indexed": true,
          "internalType": "address",
          "name": "owner",
          "type": "address"
        },
        {
          "indexed": true,
          "internalType": "address",
          "name": "approved",
          "type": "address"
        },
        {
          "indexed": true,
          "internalType": "uint256",
          "name": "tokenId",
          "type": "uint256"
        }
      ],
      "name": "Approval",
      "type": "event"
    },
    {
      "anonymous": false,
      "inputs": [
        {
          "indexed": true,
          "internalType": "address",
          "name": "owner",
          "type": "address"
        },
        {
          "indexed": true,
          "internalType": "address",
          "name": "operator",
          "type": "address"
        },
        {
          "indexed": false,
          "internalType": "bool",
          "name": "approved",
          "type": "bool"
        }
      ],
      "name": "ApprovalForAll",
      "type": "event"
    },
    {
      "anonymous": false,
      "inputs": [
        {
          "indexed": false,
          "internalType": "address",
          "name": "sender",
          "type": "address"
        },
        {
          "indexed": false,
          "internalType": "uint256",
          "name": "tokenId",
          "type": "uint256"
        }
      ],
      "name": "NewEpicNFTMinted",
      "type": "event"
    },
    {
      "anonymous": false,
      "inputs": [
        {
          "indexed": true,
          "internalType": "address",
          "name": "from",
          "type": "address"
        },
        {
          "indexed": true,
          "internalType": "address",
          "name": "to",
          "type": "address"
        },
        {
          "indexed": true,
          "internalType": "uint256",
          "name": "tokenId",
          "type": "uint256"
        }
      ],
      "name": "Transfer",
      "type": "event"
    },
    {
      "inputs": [
        {
          "internalType": "address",
          "name": "to",
          "type": "address"
        },
        {
          "internalType": "uint256",
          "name": "tokenId",
          "type": "uint256"
        }
      ],
      "name": "approve",
      "outputs": [],
      "stateMutability": "nonpayable",
      "type": "function"
    },
    {
      "inputs": [
        {
          "internalType": "address",
          "name": "owner",
          "type": "address"
        }
      ],
      "name": "balanceOf",
      "outputs": [
        {
          "internalType": "uint256",
          "name": "",
          "type": "uint256"
        }
      ],
      "stateMutability": "view",
      "type": "function"
    },
    {
      "inputs": [
        {
          "internalType": "uint256",
          "name": "tokenId",
          "type": "uint256"
        }
      ],
      "name": "getApproved",
      "outputs": [
        {
          "internalType": "address",
          "name": "",
          "type": "address"
        }
      ],
      "stateMutability": "view",
      "type": "function"
    },
    {
      "inputs": [
        {
          "internalType": "address",
          "name": "owner",
          "type": "address"
        },
        {
          "internalType": "address",
          "name": "operator",
          "type": "address"
        }
      ],
      "name": "isApprovedForAll",
      "outputs": [
        {
          "internalType": "bool",
          "name": "",
          "type": "bool"
        }
      ],
      "stateMutability": "view",
      "type": "function"
    },
    {
      "inputs": [
        {
          "internalType": "string",
          "name": "quote",
          "type": "string"
        }
      ],
      "name": "makeAnEpicNFT",
      "outputs": [],
      "stateMutability": "nonpayable",
      "type": "function"
    },
    {
      "inputs": [],
      "name": "name",
      "outputs": [
        {
          "internalType": "string",
          "name": "",
          "type": "string"
        }
      ],
      "stateMutability": "view",
      "type": "function"
    },
    {
      "inputs": [
        {
          "internalType": "uint256",
          "name": "tokenId",
          "type": "uint256"
        }
      ],
      "name": "ownerOf",
      "outputs": [
        {
          "internalType": "address",
          "name": "",
          "type": "address"
        }
      ],
      "stateMutability": "view",
      "type": "function"
    },
    {
      "inputs": [
        {
          "internalType": "address",
          "name": "from",
          "type": "address"
        },
        {
          "internalType": "address",
          "name": "to",
          "type": "address"
        },
        {
          "internalType": "uint256",
          "name": "tokenId",
          "type": "uint256"
        }
      ],
      "name": "safeTransferFrom",
      "outputs": [],
      "stateMutability": "nonpayable",
      "type": "function"
    },
    {
      "inputs": [
        {
          "internalType": "address",
          "name": "from",
          "type": "address"
        },
        {
          "internalType": "address",
          "name": "to",
          "type": "address"
        },
        {
          "internalType": "uint256",
          "name": "tokenId",
          "type": "uint256"
        },
        {
          "internalType": "bytes",
          "name": "_data",
          "type": "bytes"
        }
      ],
      "name": "safeTransferFrom",
      "outputs": [],
      "stateMutability": "nonpayable",
      "type": "function"
    },
    {
      "inputs": [
        {
          "internalType": "address",
          "name": "operator",
          "type": "address"
        },
        {
          "internalType": "bool",
          "name": "approved",
          "type": "bool"
        }
      ],
      "name": "setApprovalForAll",
      "outputs": [],
      "stateMutability": "nonpayable",
      "type": "function"
    },
    {
      "inputs": [
        {
          "internalType": "bytes4",
          "name": "interfaceId",
          "type": "bytes4"
        }
      ],
      "name": "supportsInterface",
      "outputs": [
        {
          "internalType": "bool",
          "name": "",
          "type": "bool"
        }
      ],
      "stateMutability": "view",
      "type": "function"
    },
    {
      "inputs": [],
      "name": "symbol",
      "outputs": [
        {
          "internalType": "string",
          "name": "",
          "type": "string"
        }
      ],
      "stateMutability": "view",
      "type": "function"
    },
    {
      "inputs": [
        {
          "internalType": "uint256",
          "name": "tokenId",
          "type": "uint256"
        }
      ],
      "name": "tokenURI",
      "outputs": [
        {
          "internalType": "string",
          "name": "",
          "type": "string"
        }
      ],
      "stateMutability": "view",
      "type": "function"
    },
    {
      "inputs": [
        {
          "internalType": "address",
          "name": "from",
          "type": "address"
        },
        {
          "internalType": "address",
          "name": "to",
          "type": "address"
        },
        {
          "internalType": "uint256",
          "name": "tokenId",
          "type": "uint256"
        }
      ],
      "name": "transferFrom",
      "outputs": [],
      "stateMutability": "nonpayable",
      "type": "function"
    }
  ],
  "bytecode": "0x608060405260405180610160016040528061012f8152602001620037f161012f9139600890805190602001906200003892919062000204565b503480156200004657600080fd5b506040518060400160405280600981526020017f5371756172654e465400000000000000000000000000000000000000000000008152506040518060400160405280600681526020017f53515541524500000000000000000000000000000000000000000000000000008152508160009080519060200190620000cb92919062000204565b508060019080519060200190620000e492919062000204565b505050620001326040518060400160405280601e81526020017f54686973206973206d79204e465420636f6e74726163742e20576f61682100008152506200013860201b62000c921760201c565b620003e1565b620001d8816040516024016200014f9190620002f5565b6040516020818303038152906040527f41304fac000000000000000000000000000000000000000000000000000000007bffffffffffffffffffffffffffffffffffffffffffffffffffffffff19166020820180517bffffffffffffffffffffffffffffffffffffffffffffffffffffffff8381831617835250505050620001db60201b60201c565b50565b60008151905060006a636f6e736f6c652e6c6f679050602083016000808483855afa5050505050565b82805462000212906200036b565b90600052602060002090601f01602090048101928262000236576000855562000282565b82601f106200025157805160ff191683800117855562000282565b8280016001018555821562000282579182015b828111156200028157825182559160200191906001019062000264565b5b50905062000291919062000295565b5090565b5b80821115620002b057600081600090555060010162000296565b5090565b6000620002c18262000319565b620002cd818562000324565b9350620002df81856020860162000335565b620002ea81620003d0565b840191505092915050565b60006020820190508181036000830152620003118184620002b4565b905092915050565b600081519050919050565b600082825260208201905092915050565b60005b838110156200035557808201518184015260208101905062000338565b8381111562000365576000848401525b50505050565b600060028204905060018216806200038457607f821691505b602082108114156200039b576200039a620003a1565b5b50919050565b7f4e487b7100000000000000000000000000000000000000000000000000000000600052602260045260246000fd5b6000601f19601f8301169050919050565b61340080620003f16000396000f3fe608060405234801561001057600080fd5b50600436106100ea5760003560e01c80636352211e1161008c578063a22cb46511610066578063a22cb4651461025b578063b88d4fde14610277578063c87b56dd14610293578063e985e9c5146102c3576100ea565b80636352211e146101dd57806370a082311461020d57806395d89b411461023d576100ea565b8063095ea7b3116100c8578063095ea7b31461016d57806323b872dd1461018957806339fa8daf146101a557806342842e0e146101c1576100ea565b806301ffc9a7146100ef57806306fdde031461011f578063081812fc1461013d575b600080fd5b610109600480360381019061010491906120c7565b6102f3565b6040516101169190612c44565b60405180910390f35b6101276103d5565b6040516101349190612c5f565b60405180910390f35b6101576004803603810190610152919061215a565b610467565b6040516101649190612bb4565b60405180910390f35b6101876004803603810190610182919061208b565b6104ec565b005b6101a3600480360381019061019e9190611f85565b610604565b005b6101bf60048036038101906101ba9190612119565b610664565b005b6101db60048036038101906101d69190611f85565b610818565b005b6101f760048036038101906101f2919061215a565b610838565b6040516102049190612bb4565b60405180910390f35b61022760048036038101906102229190611f20565b6108ea565b6040516102349190612ebf565b60405180910390f35b6102456109a2565b6040516102529190612c5f565b60405180910390f35b6102756004803603810190610270919061204f565b610a34565b005b610291600480360381019061028c9190611fd4565b610a4a565b005b6102ad60048036038101906102a8919061215a565b610aac565b6040516102ba9190612c5f565b60405180910390f35b6102dd60048036038101906102d89190611f49565b610bfe565b6040516102ea9190612c44565b60405180910390f35b60007f80ac58cd000000000000000000000000000000000000000000000000000000007bffffffffffffffffffffffffffffffffffffffffffffffffffffffff1916827bffffffffffffffffffffffffffffffffffffffffffffffffffffffff191614806103be57507f5b5e139f000000000000000000000000000000000000000000000000000000007bffffffffffffffffffffffffffffffffffffffffffffffffffffffff1916827bffffffffffffffffffffffffffffffffffffffffffffffffffffffff1916145b806103ce57506103cd82610d2b565b5b9050919050565b6060600080546103e49061318e565b80601f01602080910402602001604051908101604052809291908181526020018280546104109061318e565b801561045d5780601f106104325761010080835404028352916020019161045d565b820191906000526020600020905b81548152906001019060200180831161044057829003601f168201915b5050505050905090565b600061047282610d95565b6104b1576040517f08c379a00000000000000000000000000000000000000000000000000000000081526004016104a890612e1f565b60405180910390fd5b6004600083815260200190815260200160002060009054906101000a900473ffffffffffffffffffffffffffffffffffffffff169050919050565b60006104f782610838565b90508073ffffffffffffffffffffffffffffffffffffffff168373ffffffffffffffffffffffffffffffffffffffff161415610568576040517f08c379a000000000000000000000000000000000000000000000000000000000815260040161055f90612e7f565b60405180910390fd5b8073ffffffffffffffffffffffffffffffffffffffff16610587610e01565b73ffffffffffffffffffffffffffffffffffffffff1614806105b657506105b5816105b0610e01565b610bfe565b5b6105f5576040517f08c379a00000000000000000000000000000000000000000000000000000000081526004016105ec90612d5f565b60405180910390fd5b6105ff8383610e09565b505050565b61061561060f610e01565b82610ec2565b610654576040517f08c379a000000000000000000000000000000000000000000000000000000000815260040161064b90612e9f565b60405180910390fd5b61065f838383610fa0565b505050565b600061067060076111fc565b90506000600883604051602001610688929190612afc565b604051602081830303815290604052905060006106cd846106a88461120a565b6040516020016106b9929190612b4d565b60405160208183030381529060405261120a565b90506000816040516020016106e29190612b92565b60405160208183030381529060405290506107316040518060400160405280601581526020017f0a2d2d2d2d2d2d2d2d2d2d2d2d2d2d2d2d2d2d2d2d0000000000000000000000815250610c92565b610759816040516020016107459190612b2b565b604051602081830303815290604052610c92565b6107976040518060400160405280601581526020017f2d2d2d2d2d2d2d2d2d2d2d2d2d2d2d2d2d2d2d2d0a0000000000000000000000815250610c92565b6107a133856113c8565b6107ab84826113e6565b6107ce6040518060600160405280602781526020016133a460279139853361145a565b6107d860076114f9565b7febb98688741ffa4c7589bf325de30cf7becb63de567842e1ccdb6cb949fdc82c3385604051610809929190612c1b565b60405180910390a15050505050565b61083383838360405180602001604052806000815250610a4a565b505050565b6000806002600084815260200190815260200160002060009054906101000a900473ffffffffffffffffffffffffffffffffffffffff169050600073ffffffffffffffffffffffffffffffffffffffff168173ffffffffffffffffffffffffffffffffffffffff1614156108e1576040517f08c379a00000000000000000000000000000000000000000000000000000000081526004016108d890612d9f565b60405180910390fd5b80915050919050565b60008073ffffffffffffffffffffffffffffffffffffffff168273ffffffffffffffffffffffffffffffffffffffff16141561095b576040517f08c379a000000000000000000000000000000000000000000000000000000000815260040161095290612d7f565b60405180910390fd5b600360008373ffffffffffffffffffffffffffffffffffffffff1673ffffffffffffffffffffffffffffffffffffffff168152602001908152602001600020549050919050565b6060600180546109b19061318e565b80601f01602080910402602001604051908101604052809291908181526020018280546109dd9061318e565b8015610a2a5780601f106109ff57610100808354040283529160200191610a2a565b820191906000526020600020905b815481529060010190602001808311610a0d57829003601f168201915b5050505050905090565b610a46610a3f610e01565b838361150f565b5050565b610a5b610a55610e01565b83610ec2565b610a9a576040517f08c379a0000000000000000000000000000000000000000000000000000000008152600401610a9190612e9f565b60405180910390fd5b610aa68484848461167c565b50505050565b6060610ab782610d95565b610af6576040517f08c379a0000000000000000000000000000000000000000000000000000000008152600401610aed90612dff565b60405180910390fd5b6000600660008481526020019081526020016000208054610b169061318e565b80601f0160208091040260200160405190810160405280929190818152602001828054610b429061318e565b8015610b8f5780601f10610b6457610100808354040283529160200191610b8f565b820191906000526020600020905b815481529060010190602001808311610b7257829003601f168201915b505050505090506000610ba06116d8565b9050600081511415610bb6578192505050610bf9565b600082511115610beb578082604051602001610bd3929190612ad8565b60405160208183030381529060405292505050610bf9565b610bf4846116ef565b925050505b919050565b6000600560008473ffffffffffffffffffffffffffffffffffffffff1673ffffffffffffffffffffffffffffffffffffffff16815260200190815260200160002060008373ffffffffffffffffffffffffffffffffffffffff1673ffffffffffffffffffffffffffffffffffffffff16815260200190815260200160002060009054906101000a900460ff16905092915050565b610d2881604051602401610ca69190612c5f565b6040516020818303038152906040527f41304fac000000000000000000000000000000000000000000000000000000007bffffffffffffffffffffffffffffffffffffffffffffffffffffffff19166020820180517bffffffffffffffffffffffffffffffffffffffffffffffffffffffff8381831617835250505050611796565b50565b60007f01ffc9a7000000000000000000000000000000000000000000000000000000007bffffffffffffffffffffffffffffffffffffffffffffffffffffffff1916827bffffffffffffffffffffffffffffffffffffffffffffffffffffffff1916149050919050565b60008073ffffffffffffffffffffffffffffffffffffffff166002600084815260200190815260200160002060009054906101000a900473ffffffffffffffffffffffffffffffffffffffff1673ffffffffffffffffffffffffffffffffffffffff1614159050919050565b600033905090565b816004600083815260200190815260200160002060006101000a81548173ffffffffffffffffffffffffffffffffffffffff021916908373ffffffffffffffffffffffffffffffffffffffff160217905550808273ffffffffffffffffffffffffffffffffffffffff16610e7c83610838565b73ffffffffffffffffffffffffffffffffffffffff167f8c5be1e5ebec7d5bd14f71427d1e84f3dd0314c0f7b2291e5b200ac8c7c3b92560405160405180910390a45050565b6000610ecd82610d95565b610f0c576040517f08c379a0000000000000000000000000000000000000000000000000000000008152600401610f0390612d3f565b60405180910390fd5b6000610f1783610838565b90508073ffffffffffffffffffffffffffffffffffffffff168473ffffffffffffffffffffffffffffffffffffffff161480610f8657508373ffffffffffffffffffffffffffffffffffffffff16610f6e84610467565b73ffffffffffffffffffffffffffffffffffffffff16145b80610f975750610f968185610bfe565b5b91505092915050565b8273ffffffffffffffffffffffffffffffffffffffff16610fc082610838565b73ffffffffffffffffffffffffffffffffffffffff1614611016576040517f08c379a000000000000000000000000000000000000000000000000000000000815260040161100d90612e3f565b60405180910390fd5b600073ffffffffffffffffffffffffffffffffffffffff168273ffffffffffffffffffffffffffffffffffffffff161415611086576040517f08c379a000000000000000000000000000000000000000000000000000000000815260040161107d90612cff565b60405180910390fd5b6110918383836117bf565b61109c600082610e09565b6001600360008573ffffffffffffffffffffffffffffffffffffffff1673ffffffffffffffffffffffffffffffffffffffff16815260200190815260200160002060008282546110ec91906130a4565b925050819055506001600360008473ffffffffffffffffffffffffffffffffffffffff1673ffffffffffffffffffffffffffffffffffffffff16815260200190815260200160002060008282546111439190612fc3565b92505081905550816002600083815260200190815260200160002060006101000a81548173ffffffffffffffffffffffffffffffffffffffff021916908373ffffffffffffffffffffffffffffffffffffffff160217905550808273ffffffffffffffffffffffffffffffffffffffff168473ffffffffffffffffffffffffffffffffffffffff167fddf252ad1be2c89b69c2b068fc378daa952ba7f163c4a11628f55a4df523b3ef60405160405180910390a4505050565b600081600001549050919050565b6060600082519050600081141561123357604051806020016040528060008152509150506113c3565b600060036002836112449190612fc3565b61124e9190613019565b600461125a919061304a565b9050600060208261126b9190612fc3565b67ffffffffffffffff8111156112aa577f4e487b7100000000000000000000000000000000000000000000000000000000600052604160045260246000fd5b6040519080825280601f01601f1916602001820160405280156112dc5781602001600182028036833780820191505090505b5090506000604051806060016040528060408152602001613364604091399050600181016020830160005b868110156113805760038101905062ffffff818a015116603f8160121c168401518060081b905060ff603f83600c1c1686015116810190508060081b905060ff603f8360061c1686015116810190508060081b905060ff603f831686015116810190508060e01b90508084526004840193505050611307565b50600386066001811461139a57600281146113aa576113b5565b613d3d60f01b60028303526113b5565b603d60f81b60018303525b508484525050819450505050505b919050565b6113e28282604051806020016040528060008152506117c4565b5050565b6113ef82610d95565b61142e576040517f08c379a000000000000000000000000000000000000000000000000000000000815260040161142590612dbf565b60405180910390fd5b80600660008481526020019081526020016000209080519060200190611455929190611d44565b505050565b6114f483838360405160240161147293929190612c81565b6040516020818303038152906040527fe3849f79000000000000000000000000000000000000000000000000000000007bffffffffffffffffffffffffffffffffffffffffffffffffffffffff19166020820180517bffffffffffffffffffffffffffffffffffffffffffffffffffffffff8381831617835250505050611796565b505050565b6001816000016000828254019250508190555050565b8173ffffffffffffffffffffffffffffffffffffffff168373ffffffffffffffffffffffffffffffffffffffff16141561157e576040517f08c379a000000000000000000000000000000000000000000000000000000000815260040161157590612d1f565b60405180910390fd5b80600560008573ffffffffffffffffffffffffffffffffffffffff1673ffffffffffffffffffffffffffffffffffffffff16815260200190815260200160002060008473ffffffffffffffffffffffffffffffffffffffff1673ffffffffffffffffffffffffffffffffffffffff16815260200190815260200160002060006101000a81548160ff0219169083151502179055508173ffffffffffffffffffffffffffffffffffffffff168373ffffffffffffffffffffffffffffffffffffffff167f17307eab39ab6107e8899845ad3d59bd9653f200f220920489ca2b5937696c318360405161166f9190612c44565b60405180910390a3505050565b611687848484610fa0565b6116938484848461181f565b6116d2576040517f08c379a00000000000000000000000000000000000000000000000000000000081526004016116c990612cbf565b60405180910390fd5b50505050565b606060405180602001604052806000815250905090565b60606116fa82610d95565b611739576040517f08c379a000000000000000000000000000000000000000000000000000000000815260040161173090612e5f565b60405180910390fd5b60006117436116d8565b90506000815111611763576040518060200160405280600081525061178e565b8061176d846119b6565b60405160200161177e929190612ad8565b6040516020818303038152906040525b915050919050565b60008151905060006a636f6e736f6c652e6c6f679050602083016000808483855afa5050505050565b505050565b6117ce8383611b63565b6117db600084848461181f565b61181a576040517f08c379a000000000000000000000000000000000000000000000000000000000815260040161181190612cbf565b60405180910390fd5b505050565b60006118408473ffffffffffffffffffffffffffffffffffffffff16611d31565b156119a9578373ffffffffffffffffffffffffffffffffffffffff1663150b7a02611869610e01565b8786866040518563ffffffff1660e01b815260040161188b9493929190612bcf565b602060405180830381600087803b1580156118a557600080fd5b505af19250505080156118d657506040513d601f19601f820116820180604052508101906118d391906120f0565b60015b611959573d8060008114611906576040519150601f19603f3d011682016040523d82523d6000602084013e61190b565b606091505b50600081511415611951576040517f08c379a000000000000000000000000000000000000000000000000000000000815260040161194890612cbf565b60405180910390fd5b805181602001fd5b63150b7a0260e01b7bffffffffffffffffffffffffffffffffffffffffffffffffffffffff1916817bffffffffffffffffffffffffffffffffffffffffffffffffffffffff1916149150506119ae565b600190505b949350505050565b606060008214156119fe576040518060400160405280600181526020017f30000000000000000000000000000000000000000000000000000000000000008152509050611b5e565b600082905060005b60008214611a30578080611a19906131c0565b915050600a82611a299190613019565b9150611a06565b60008167ffffffffffffffff811115611a72577f4e487b7100000000000000000000000000000000000000000000000000000000600052604160045260246000fd5b6040519080825280601f01601f191660200182016040528015611aa45781602001600182028036833780820191505090505b5090505b60008514611b5757600182611abd91906130a4565b9150600a85611acc9190613209565b6030611ad89190612fc3565b60f81b818381518110611b14577f4e487b7100000000000000000000000000000000000000000000000000000000600052603260045260246000fd5b60200101907effffffffffffffffffffffffffffffffffffffffffffffffffffffffffffff1916908160001a905350600a85611b509190613019565b9450611aa8565b8093505050505b919050565b600073ffffffffffffffffffffffffffffffffffffffff168273ffffffffffffffffffffffffffffffffffffffff161415611bd3576040517f08c379a0000000000000000000000000000000000000000000000000000000008152600401611bca90612ddf565b60405180910390fd5b611bdc81610d95565b15611c1c576040517f08c379a0000000000000000000000000000000000000000000000000000000008152600401611c1390612cdf565b60405180910390fd5b611c28600083836117bf565b6001600360008473ffffffffffffffffffffffffffffffffffffffff1673ffffffffffffffffffffffffffffffffffffffff1681526020019081526020016000206000828254611c789190612fc3565b92505081905550816002600083815260200190815260200160002060006101000a81548173ffffffffffffffffffffffffffffffffffffffff021916908373ffffffffffffffffffffffffffffffffffffffff160217905550808273ffffffffffffffffffffffffffffffffffffffff16600073ffffffffffffffffffffffffffffffffffffffff167fddf252ad1be2c89b69c2b068fc378daa952ba7f163c4a11628f55a4df523b3ef60405160405180910390a45050565b600080823b905060008111915050919050565b828054611d509061318e565b90600052602060002090601f016020900481019282611d725760008555611db9565b82601f10611d8b57805160ff1916838001178555611db9565b82800160010185558215611db9579182015b82811115611db8578251825591602001919060010190611d9d565b5b509050611dc69190611dca565b5090565b5b80821115611de3576000816000905550600101611dcb565b5090565b6000611dfa611df584612f0b565b612eda565b905082815260208101848484011115611e1257600080fd5b611e1d84828561314c565b509392505050565b6000611e38611e3384612f3b565b612eda565b905082815260208101848484011115611e5057600080fd5b611e5b84828561314c565b509392505050565b600081359050611e7281613307565b92915050565b600081359050611e878161331e565b92915050565b600081359050611e9c81613335565b92915050565b600081519050611eb181613335565b92915050565b600082601f830112611ec857600080fd5b8135611ed8848260208601611de7565b91505092915050565b600082601f830112611ef257600080fd5b8135611f02848260208601611e25565b91505092915050565b600081359050611f1a8161334c565b92915050565b600060208284031215611f3257600080fd5b6000611f4084828501611e63565b91505092915050565b60008060408385031215611f5c57600080fd5b6000611f6a85828601611e63565b9250506020611f7b85828601611e63565b9150509250929050565b600080600060608486031215611f9a57600080fd5b6000611fa886828701611e63565b9350506020611fb986828701611e63565b9250506040611fca86828701611f0b565b9150509250925092565b60008060008060808587031215611fea57600080fd5b6000611ff887828801611e63565b945050602061200987828801611e63565b935050604061201a87828801611f0b565b925050606085013567ffffffffffffffff81111561203757600080fd5b61204387828801611eb7565b91505092959194509250565b6000806040838503121561206257600080fd5b600061207085828601611e63565b925050602061208185828601611e78565b9150509250929050565b6000806040838503121561209e57600080fd5b60006120ac85828601611e63565b92505060206120bd85828601611f0b565b9150509250929050565b6000602082840312156120d957600080fd5b60006120e784828501611e8d565b91505092915050565b60006020828403121561210257600080fd5b600061211084828501611ea2565b91505092915050565b60006020828403121561212b57600080fd5b600082013567ffffffffffffffff81111561214557600080fd5b61215184828501611ee1565b91505092915050565b60006020828403121561216c57600080fd5b600061217a84828501611f0b565b91505092915050565b61218c816130d8565b82525050565b61219b816130ea565b82525050565b60006121ac82612f80565b6121b68185612f96565b93506121c681856020860161315b565b6121cf816132f6565b840191505092915050565b60006121e582612f8b565b6121ef8185612fa7565b93506121ff81856020860161315b565b612208816132f6565b840191505092915050565b600061221e82612f8b565b6122288185612fb8565b935061223881856020860161315b565b80840191505092915050565b600081546122518161318e565b61225b8186612fb8565b945060018216600081146122765760018114612287576122ba565b60ff198316865281860193506122ba565b61229085612f6b565b60005b838110156122b257815481890152600182019150602081019050612293565b838801955050505b50505092915050565b60006122d0602583612fb8565b91507f68747470733a2f2f6e6674707265766965772e30786465762e636f6465732f3f60008301527f636f64653d0000000000000000000000000000000000000000000000000000006020830152602582019050919050565b6000612336603283612fa7565b91507f4552433732313a207472616e7366657220746f206e6f6e20455243373231526560008301527f63656976657220696d706c656d656e74657200000000000000000000000000006020830152604082019050919050565b600061239c601c83612fa7565b91507f4552433732313a20746f6b656e20616c7265616479206d696e746564000000006000830152602082019050919050565b60006123dc602483612fa7565b91507f4552433732313a207472616e7366657220746f20746865207a65726f2061646460008301527f72657373000000000000000000000000000000000000000000000000000000006020830152604082019050919050565b6000612442601983612fa7565b91507f4552433732313a20617070726f766520746f2063616c6c6572000000000000006000830152602082019050919050565b6000612482602c83612fa7565b91507f4552433732313a206f70657261746f7220717565727920666f72206e6f6e657860008301527f697374656e7420746f6b656e00000000000000000000000000000000000000006020830152604082019050919050565b60006124e8600d83612fb8565b91507f3c2f746578743e3c2f7376673e000000000000000000000000000000000000006000830152600d82019050919050565b6000612528603883612fa7565b91507f4552433732313a20617070726f76652063616c6c6572206973206e6f74206f7760008301527f6e6572206e6f7220617070726f76656420666f7220616c6c00000000000000006020830152604082019050919050565b600061258e602a83612fa7565b91507f4552433732313a2062616c616e636520717565727920666f7220746865207a6560008301527f726f2061646472657373000000000000000000000000000000000000000000006020830152604082019050919050565b60006125f4602983612fa7565b91507f4552433732313a206f776e657220717565727920666f72206e6f6e657869737460008301527f656e7420746f6b656e00000000000000000000000000000000000000000000006020830152604082019050919050565b600061265a602e83612fa7565b91507f45524337323155524953746f726167653a2055524920736574206f66206e6f6e60008301527f6578697374656e7420746f6b656e0000000000000000000000000000000000006020830152604082019050919050565b60006126c0600283612fb8565b91507f227d0000000000000000000000000000000000000000000000000000000000006000830152600282019050919050565b6000612700602083612fa7565b91507f4552433732313a206d696e7420746f20746865207a65726f20616464726573736000830152602082019050919050565b6000612740603183612fa7565b91507f45524337323155524953746f726167653a2055524920717565727920666f722060008301527f6e6f6e6578697374656e7420746f6b656e0000000000000000000000000000006020830152604082019050919050565b60006127a6606783612fb8565b91507f222c20226465736372697074696f6e223a2022496d6d6f7274616c697365642060008301527f71756f7465206f6e207468652052696e6b65627920426c6f636b636861696e2e60208301527f222c2022696d616765223a2022646174613a696d6167652f7376672b786d6c3b60408301527f6261736536342c000000000000000000000000000000000000000000000000006060830152606782019050919050565b6000612858602c83612fa7565b91507f4552433732313a20617070726f76656420717565727920666f72206e6f6e657860008301527f697374656e7420746f6b656e00000000000000000000000000000000000000006020830152604082019050919050565b60006128be602983612fa7565b91507f4552433732313a207472616e73666572206f6620746f6b656e2074686174206960008301527f73206e6f74206f776e00000000000000000000000000000000000000000000006020830152604082019050919050565b6000612924602f83612fa7565b91507f4552433732314d657461646174613a2055524920717565727920666f72206e6f60008301527f6e6578697374656e7420746f6b656e00000000000000000000000000000000006020830152604082019050919050565b600061298a600a83612fb8565b91507f7b226e616d65223a2022000000000000000000000000000000000000000000006000830152600a82019050919050565b60006129ca602183612fa7565b91507f4552433732313a20617070726f76616c20746f2063757272656e74206f776e6560008301527f72000000000000000000000000000000000000000000000000000000000000006020830152604082019050919050565b6000612a30601d83612fb8565b91507f646174613a6170706c69636174696f6e2f6a736f6e3b6261736536342c0000006000830152601d82019050919050565b6000612a70603183612fa7565b91507f4552433732313a207472616e736665722063616c6c6572206973206e6f74206f60008301527f776e6572206e6f7220617070726f7665640000000000000000000000000000006020830152604082019050919050565b612ad281613142565b82525050565b6000612ae48285612213565b9150612af08284612213565b91508190509392505050565b6000612b088285612244565b9150612b148284612213565b9150612b1f826124db565b91508190509392505050565b6000612b36826122c3565b9150612b428284612213565b915081905092915050565b6000612b588261297d565b9150612b648285612213565b9150612b6f82612799565b9150612b7b8284612213565b9150612b86826126b3565b91508190509392505050565b6000612b9d82612a23565b9150612ba98284612213565b915081905092915050565b6000602082019050612bc96000830184612183565b92915050565b6000608082019050612be46000830187612183565b612bf16020830186612183565b612bfe6040830185612ac9565b8181036060830152612c1081846121a1565b905095945050505050565b6000604082019050612c306000830185612183565b612c3d6020830184612ac9565b9392505050565b6000602082019050612c596000830184612192565b92915050565b60006020820190508181036000830152612c7981846121da565b905092915050565b60006060820190508181036000830152612c9b81866121da565b9050612caa6020830185612ac9565b612cb76040830184612183565b949350505050565b60006020820190508181036000830152612cd881612329565b9050919050565b60006020820190508181036000830152612cf88161238f565b9050919050565b60006020820190508181036000830152612d18816123cf565b9050919050565b60006020820190508181036000830152612d3881612435565b9050919050565b60006020820190508181036000830152612d5881612475565b9050919050565b60006020820190508181036000830152612d788161251b565b9050919050565b60006020820190508181036000830152612d9881612581565b9050919050565b60006020820190508181036000830152612db8816125e7565b9050919050565b60006020820190508181036000830152612dd88161264d565b9050919050565b60006020820190508181036000830152612df8816126f3565b9050919050565b60006020820190508181036000830152612e1881612733565b9050919050565b60006020820190508181036000830152612e388161284b565b9050919050565b60006020820190508181036000830152612e58816128b1565b9050919050565b60006020820190508181036000830152612e7881612917565b9050919050565b60006020820190508181036000830152612e98816129bd565b9050919050565b60006020820190508181036000830152612eb881612a63565b9050919050565b6000602082019050612ed46000830184612ac9565b92915050565b6000604051905081810181811067ffffffffffffffff82111715612f0157612f006132c7565b5b8060405250919050565b600067ffffffffffffffff821115612f2657612f256132c7565b5b601f19601f8301169050602081019050919050565b600067ffffffffffffffff821115612f5657612f556132c7565b5b601f19601f8301169050602081019050919050565b60008190508160005260206000209050919050565b600081519050919050565b600081519050919050565b600082825260208201905092915050565b600082825260208201905092915050565b600081905092915050565b6000612fce82613142565b9150612fd983613142565b9250827fffffffffffffffffffffffffffffffffffffffffffffffffffffffffffffffff0382111561300e5761300d61323a565b5b828201905092915050565b600061302482613142565b915061302f83613142565b92508261303f5761303e613269565b5b828204905092915050565b600061305582613142565b915061306083613142565b9250817fffffffffffffffffffffffffffffffffffffffffffffffffffffffffffffffff04831182151516156130995761309861323a565b5b828202905092915050565b60006130af82613142565b91506130ba83613142565b9250828210156130cd576130cc61323a565b5b828203905092915050565b60006130e382613122565b9050919050565b60008115159050919050565b60007fffffffff0000000000000000000000000000000000000000000000000000000082169050919050565b600073ffffffffffffffffffffffffffffffffffffffff82169050919050565b6000819050919050565b82818337600083830152505050565b60005b8381101561317957808201518184015260208101905061315e565b83811115613188576000848401525b50505050565b600060028204905060018216806131a657607f821691505b602082108114156131ba576131b9613298565b5b50919050565b60006131cb82613142565b91507fffffffffffffffffffffffffffffffffffffffffffffffffffffffffffffffff8214156131fe576131fd61323a565b5b600182019050919050565b600061321482613142565b915061321f83613142565b92508261322f5761322e613269565b5b828206905092915050565b7f4e487b7100000000000000000000000000000000000000000000000000000000600052601160045260246000fd5b7f4e487b7100000000000000000000000000000000000000000000000000000000600052601260045260246000fd5b7f4e487b7100000000000000000000000000000000000000000000000000000000600052602260045260246000fd5b7f4e487b7100000000000000000000000000000000000000000000000000000000600052604160045260246000fd5b6000601f19601f8301169050919050565b613310816130d8565b811461331b57600080fd5b50565b613327816130ea565b811461333257600080fd5b50565b61333e816130f6565b811461334957600080fd5b50565b61335581613142565b811461336057600080fd5b5056fe4142434445464748494a4b4c4d4e4f505152535455565758595a6162636465666768696a6b6c6d6e6f707172737475767778797a303132333435363738392b2f416e204e4654207769746820494420257320686173206265656e206d696e74656420746f202573a2646970667358221220280e473adb15370f411778e8ee1e29143dc25039ad12c10db1b74f9a38ccd38b64736f6c634300080000333c73766720786d6c6e733d27687474703a2f2f7777772e77332e6f72672f323030302f73766727207072657365727665417370656374526174696f3d27784d696e594d696e206d656574272076696577426f783d273020302033353020333530273e3c7374796c653e2e62617365207b2066696c6c3a2077686974653b20666f6e742d66616d696c793a2073657269663b20666f6e742d73697a653a20323470783b207d3c2f7374796c653e3c726563742077696474683d273130302527206865696768743d2731303025272066696c6c3d27626c61636b27202f3e3c7465787420783d273530252720793d273530252720636c6173733d27626173652720646f6d696e616e742d626173656c696e653d276d6964646c652720746578742d616e63686f723d276d6964646c65273e",
  "linkReferences": {},
  "deployedLinkReferences": {}
}